:100000000C9476030C949E030C949E030C949E0314
:100010000C949E030C949E030C949E030C949E03DC
:100020000C949E030C949E030C94E9070C945808BE
:100030000C949E030C949E030C949E030C949E03BC
:100040000C949E030C949E030C949E030C949E03AC
:100050000C949E030C949E030C949E030C948A0AA9
:100060000C949E030C949E030C949E030C949E038C
:100070000C949E030C949E030C949E030C949E037C
:100080000C949E030C949E030C949E030C949E036C
:100090000C949E030C949E030C949E030C949E035C
:1000A0000C949E030C94D40A0C949E030000000050
:1000B000003E5B4F5B3E3E6B4F6B3E1C3E7C3E1CEE
:1000C000183C7E3C181C577D571C1C5E7F5E1C0034
:1000D000183C1800FFE7C3E7FF0018241800FFE7EB
:1000E000DBE7FF30483A060E2629792926407F05AE
:1000F0000507407F05253F5A3CE73C5A7F3E1C1CC4
:1001000008081C1C3E7F14227F22145F5F005F5F83
:1001100006097F017F006689956A6060606060946F
:10012000A2FFA29408047E040810207E2010080874
:100130002A1C08081C2A08081E101010100C1E0C7F
:100140001E0C30383E3830060E3E0E060000000011
:100150000000005F00000007000700147F147F14F8
:10016000242A7F2A1223130864623649562050003D
:1001700008070300001C2241000041221C002A1C29
:100180007F1C2A08083E0808008070300008080814
:100190000808000060600020100804023E51494534
:1001A0003E00427F400072494949462141494D3352
:1001B0001814127F1027454545393C4A49493141B9
:1001C000211109073649494936464949291E000087
:1001D00014000000403400000008142241141414DC
:1001E0001414004122140802015909063E415D59C8
:1001F0004E7C1211127C7F494949363E41414122D1
:100200007F4141413E7F494949417F090909013EFA
:10021000414151737F0808087F00417F4100204021
:10022000413F017F081422417F404040407F021C33
:10023000027F7F0408107F3E4141413E7F0909094A
:10024000063E4151215E7F09192946264949493216
:1002500003017F01033F4040403F1F2040201F3FDC
:100260004038403F63140814630304780403615961
:10027000494D43007F4141410204081020004141A3
:10028000417F04020102044040404040000307084F
:100290000020545478407F2844443838444444284B
:1002A000384444287F385454541800087E090218F2
:1002B000A4A49C787F0804047800447D400020407A
:1002C000403D007F1028440000417F40007C0478BE
:1002D00004787C080404783844444438FC18242406
:1002E0001818242418FC7C08040408485454542486
:1002F00004043F44243C4040207C1C2040201C3C03
:100300004030403C44281028444C9090907C4464F9
:10031000544C44000836410000007700000041368C
:10032000080002010204023C2623263C1EA1A16112
:10033000123A4040207A3854545559215555794144
:100340002154547841215554784020545579400C1B
:100350001E527212395555555939545454593955FC
:100360005454580000457C410002457D420001453F
:100370007C40F0292429F0F0282528F07C545545AC
:10038000002054547C547C0A097F4932494949323F
:100390003248484832324A4848303A4141217A3A54
:1003A00042402078009DA0A07D39444444393D401E
:1003B00040403D3C24FF2424487E4943662B2FFCCB
:1003C0002F2BFF0929F620C0887E09032054547979
:1003D000410000447D413048484A32384040227A4A
:1003E000007A0A0A727D0D19317D2629292F2826C7
:1003F0002929292630484D402038080808080808CF
:100400000808382F10C8ACBA2F102834FA00007B27
:10041000000008142A142222142A1408950022002D
:1004200095AA005500AAAA55AA55AA000000FF00E7
:10043000101010FF00141414FF001010FF00FF1024
:1004400010F010F0141414FC001414F700FF000056
:10045000FF00FF1414F404FC141417101F10101FD5
:10046000101F1414141F00101010F0000000001FC3
:10047000101010101F10101010F010000000FF10CE
:100480001010101010101010FF10000000FF1400CA
:1004900000FF00FF00001F10170000FC04F41414FC
:1004A0001710171414F404F40000FF00F7141414C8
:1004B00014141414F700F7141414171410101F1048
:1004C0001F141414F4141010F010F000001F101F6B
:1004D0000000001F14000000FC140000F010F010D9
:1004E00010FF10FF141414FF141010101F00000050
:1004F00000F010FFFFFFFFFFF0F0F0F0F0FFFFFF54
:100500000000000000FFFF0F0F0F0F0F38444438AA
:10051000447C2A2A3E147E02020606027E027E02E5
:1005200063554941633844443C04407E201E200604
:10053000027E020299A5E7A5991C2A492A1C4C7241
:1005400001724C304A4D4D303048784830BC625AC8
:10055000463D3E494949007E0101017E2A2A2A2A58
:100560002A44445F444440514A444040444A514034
:100570000000FF0103E080FF000008086B6B0836F5
:1005800012362436060F090F060000181800000066
:100590001010003040FF0101001F01011E00191D55
:1005A0001712003C3C3C3C0000000000F0F89C8E20
:1005B0008783878E9CF8F00000FEFF03030303038C
:1005C000070EFCF80000FEFF0303030303070EFC05
:1005D000F80000FFFF00000000000000FFFF000027
:1005E000FEFF8383838383C7EE7C380000F8FC0E14
:1005F00007030303070EFCF800003F7FE0C0808084
:10060000C0E07F3FFFFF01010101010101FFFF0089
:1006100000FFFF0C0C0C0C1C3E77E3C100007FFFB9
:10062000C0C0C0C0C0E0703F1F00001F3F70E0C0EE
:10063000C0C0E0703F1F00007FFFC1C1C1C1C1E366
:10064000773E1C00001F3F70E0C0C0C0E0703F1F3D
:10065000000000000001FFFF01000000D5F08D1434
:10066000A1C881CFD9F1AF2000C0A0D92181FFA8B6
:1006700000A800A83F080B000202020000090400C5
:1006800000010202000005240010010524010101FF
:10069000042402060524060001070581031000401A
:1006A00009040100020A00000007050202400000E0
:1006B000070583024000000403090412010002EF51
:1006C00002014041233680000101020301417264AE
:1006D00075696E6F204C4C430041726475696E6F92
:1006E000204C656F6E6172646F001D0B11241FBE7C
:1006F000CFEFDAE0DEBFCDBF11E0A0E0B1E0EAED80
:10070000FEE102C005900D92A233B107D9F725E0B2
:10071000A2E3B1E001C01D92AF3AB207E1F713E0E6
:10072000C6E7D3E004C02197FE010E94650FC537DC
:10073000D107C9F70E943A0B0C946B0F0C94000080
:10074000E9E5F1E0A0E0B8E000800EBC8111012CE9
:100750001197A0FDFDCF0192B9F70DB40895FC01EA
:1007600080915801882311F13FB7F89482E080937B
:10077000E9002091F200822F90E01816190614F477
:1007800081E090E0882339F0289844E640935701AF
:100790004091F1004083222339F02091F200211191
:1007A00003C02BE62093E8003FBF08958FEF9FEF33
:1007B00008952FB7F89483E08093E9009091E800C2
:1007C000892F807295FF04C09091F20080E4891B0C
:1007D0002FBF089580914F0181110DC082E0809359
:1007E0004B0184E080934C0110924E0110924D0118
:1007F00081E080934F018BE491E00895CF93DF93E4
:100800001F92CDB7DEB76983DC01ED91FC910280C8
:10081000F381E02D41E050E0BE016F5F7F4F09950D
:100820000F90DF91CF91089583E08093E90080914C
:10083000F200882319F08AE38093E80008950E946B
:10084000D90390E00895CF93DF931F92CDB7DEB721
:10085000FC018485958597FD08C02FEF3FEF358714
:1008600024870F90DF91CF910895CE0101960E94C9
:10087000AF03019719F4898190E0F3CF8FEF9FEFD9
:10088000F0CF0F931F93CF93DF931F92CDB7DEB7B7
:100890008C01FC018485958597FF0BC0CE010196E4
:1008A0000E94AF03019771F4898190E0F801958768
:1008B0008487F801848595850F90DF91CF911F91F2
:1008C0000F9108958FEF9FEFF1CFFC0184859585FF
:1008D00097FD0BC09FB7F89482E08093E900809168
:1008E000F2009FBF90E0019608959FB7F89482E0D0
:1008F0008093E9008091F2009FBF90E008954091BD
:100900004501509146012091430130914401421725
:100910005307B4F49091E8009570E1F39091E800EA
:1009200092FD19C08093F10080914501909146019C
:1009300001968F739927892B19F48EEF8093E80025
:1009400080914501909146010196909346018093D4
:10095000450181E0089580E00895DF92EF92FF92D3
:100960000F931F93CF93DF93D82E8A01EB017B0166
:10097000E40EF51ECE15DF0559F0D7FE12C0FE01BC
:1009800084910E947F0421968111F4CF0FEF1FEF15
:10099000C801DF91CF911F910F91FF90EF90DF90F1
:1009A00008958881EECF0F931F93CF93DF931F920B
:1009B000CDB7DEB782E0898342E450E065E776E0B8
:1009C00080E80E94AD040E94EA03DC0112960D91BA
:1009D0001C910115110589F0D801ED91FC9102805F
:1009E000F381E02DBE016F5F7F4FC801099597FD30
:1009F00004C0F80100851185ECCF89810F90DF914B
:100A0000CF911F910F910895615030F02091F10026
:100A1000FC0120830196F8CF289884E68093570143
:100A20000895811105C081E0611106C080E004C015
:100A3000813019F46230D0F3089581E06330E0F73B
:100A4000F5CFAF92BF92CF92DF92EF92FF920F93CA
:100A50001F93CF93DF936C017B018B01040F151F54
:100A6000EB015E01AE18BF08C017D10759F06991BC
:100A7000D601ED91FC910190F081E02DC601099520
:100A8000892B79F7C501DF91CF911F910F91FF90CD
:100A9000EF90DF90CF90BF90AF9008950DB407FE18
:100AA000FDCF8EB5599A08950DB407FEFDCF8EB5D2
:100AB0001EBC089559980E947505862F0E947505E1
:100AC000852F0E947505842F0C94750580E090E0B9
:100AD000A0E0482F50915905590F60915A056A1F9F
:100AE00083E00E945A051EBC08958EBD00008EB59D
:100AF0000DB407FEFCCF08953FB7F89480913701FD
:100B000090913801A0913901B0913A0126B5A89B86
:100B100005C02F3F19F00196A11DB11D3FBFBA2F8F
:100B2000A92F982F8827BC01CD01620F711D811D4F
:100B3000911D42E0660F771F881F991F4A95D1F7D4
:100B400008958F929F92AF92BF92CF92DF92EF92D1
:100B5000FF926B017C010E947C054B015C01C1147A
:100B6000D104E104F104B9F00E947C056819790907
:100B70008A099B09683E73408105910580F381E0F5
:100B8000C81AD108E108F10828EE820E23E0921E6F
:100B9000A11CB11CE4CFFF90EF90DF90CF90BF90ED
:100BA000AF909F908F9008958F929F92AF92BF9237
:100BB000CF92DF92EF92FF920F931F93CF93DF9329
:100BC0006C017B018A0180910C01882309F45CC0CF
:100BD00080915801882309F457C080914A0180FF11
:100BE00005C08091E00082608093E000E801B12CB4
:100BF0008AEFA82E93E0892E2AE3922E209711F4F3
:100C0000BB20D9F10E94D90381110AC0AA94AA205D
:100C1000D9F161E070E080E090E00E94A105EECFA4
:100C20008C171D0611F00CF08C2F9FB7F894809252
:100C3000E9002091E80025FD02C09FBFDFCF282FEB
:100C400030E0C21BD30BF701815020F0419140935B
:100C5000F100FACFE20EF31EBB2021F09092E800E3
:100C6000B12CEBCF8091E80085FDE7CF9092E800B2
:100C7000BB24B394209709F3F3CF5D9884E6809367
:100C80004901101611063CF081E090E0F6019383D3
:100C9000828310E000E0C801DF91CF911F910F9196
:100CA000FF90EF90DF90CF90BF90AF909F908F908C
:100CB00008952D9A0895BC0190E080E00C94A10560
:100CC0008FB18095807F669B88601C9B84600895AF
:100CD0008EBD00000DB407FEFDCF089520E191E028
:100CE00061FD94E060FD990F62FD9295687F269FFB
:100CF000D0011124A80FA75ABE4F8C9140FF03C00A
:100D0000892B8C93089590958923FBCF2F923F9246
:100D10004F925F926F927F928F929F92AF92BF920B
:100D2000CF92DF92EF92FF920F931F93CF93DF93B7
:100D300000D000D000D0CDB7DEB76B837C83298391
:100D400055E0459F9001112424553F4F3E832D834C
:100D50004E2C512C3C0110E0F12C153041F08D81CE
:100D60009E810196ED81FE81F4909E838D83CB80E0
:100D7000DC8088E0382EF0FC1FC0F9810F1721F1CC
:100D80000A835301212C2E14F9F0912C812C841408
:100D90009504A9F030E8A316B10450F4B4016C0D29
:100DA0007D1D6034710520F44A81C5010E946E06E4
:100DB0005FEF851A950AEBCF29812A83E2CF23942E
:100DC0008FEFA81AB80ADFCFF6943A94C40CD51C5A
:100DD0003110D1CF1F5F640C751C163009F0BCCFE9
:100DE00026960FB6F894DEBF0FBECDBFDF91CF9130
:100DF0001F910F91FF90EF90DF90CF90BF90AF9039
:100E00009F908F907F906F905F904F903F902F902A
:100E10000895EF920F93CF93DF93462F6D3081F0BB
:100E200060913B0170913C014A3089F410923E017F
:100E300010923D01685F7F4F70933C0160933B01CE
:100E400081E090E0DF91CF910F91EF900895C091F4
:100E50003D01D0913E01EE24E39400E02091000199
:100E6000CE010E9486062696D0933E01C0933D0196
:100E7000E7CF80E00C94A0038F929F92AF92BF9235
:100E8000CF92DF92EF92FF920F931F93CF93DF9356
:100E90006D3089F0A0903B01B0903C016A30D1F4F4
:100EA00010923E0110923D0128E0A20EB11CB092BA
:100EB0003C01A0923B0181E090E0DF91CF911F9136
:100EC0000F91FF90EF90DF90CF90BF90AF909F90E9
:100ED0008F900895C62FC0903D01D0903E01109193
:100EE0003F0160910001812F0E941105D82F60E021
:100EF000812F0E94110596012A5F3F4F4901D813A7
:100F000028C06D2F812F0E941105F82EE601850162
:100F1000085F1F4F8C169D0629F16501B7FE02C0C0
:100F2000D12CC12CC8010134110514F080E490E0EB
:100F3000C816D90664F4C038D10528F44F2DB6017F
:100F4000CE010E946E063FEFC31AD30AEBCF219663
:100F5000E1CFEE24E394082F2D2F4C2FB501C601CD
:100F60000E94860690923E0180923D01A4CF30E718
:100F70003CBDDC0130E8439FC0011124A80FB91F1C
:100F80005E91352F6111372F3C93C89500C05223D5
:100F90005EBD0197A9F704D003D030E50DB43CBD88
:100FA00008951F93CF93DF93EC01162F5C98FE01F9
:100FB0008591EF010E9468061150C9F75C9ADF9194
:100FC000CF911F910895089590E080E008950C94CA
:100FD0004F0F1F920F920FB60F9211248F939F9372
:100FE0008091E1009091E100937F9093E10083FF75
:100FF0000FC01092E90091E09093EB001092EC008A
:1010000092E39093ED001092580198E09093F000D5
:1010100082FF22C093E09093E9009091F20099231F
:1010200019F09AE39093E80090914901992341F0D7
:1010300090914901915090934901911101C05D9A9D
:1010400090915701992341F09091570191509093BD
:101050005701911101C0289A84FF18C08091E200C5
:101060008E7E81608093E2008091E1008F7E80938C
:10107000E10080914A018E7E806180934A019F91B8
:101080008F910F900FBE0F901F90189580FFF7CF94
:101090008091E2008E7E80618093E2008091E10089
:1010A0008E7E8093E10080914A018E7E8160E5CF43
:1010B0001F920F920FB60F921124CF92DF92EF92F0
:1010C000FF920F931F932F933F934F935F936F93D1
:1010D0007F938F939F93AF93BF93EF93FF93CF93A0
:1010E000DF93CDB7DEB76C97DEBFCDBF1092E900BE
:1010F0008091E80083FF25C068E0CE0145960E94FC
:10110000040582EF8093E8008D8987FF39C09091B4
:10111000E80090FFFCCF982F907609F034C19E89AB
:101120004F89588D2F89F88C911131C0803861F525
:10113000809148018093F1001092F1008EEF80932E
:10114000E8006C960FB6F894DEBF0FBECDBFDF91FE
:10115000CF91FF91EF91BF91AF919F918F917F912F
:101160006F915F914F913F912F911F910F91FF9040
:10117000EF90DF90CF900F900FBE0F901F901895BB
:101180009EEF9093E800C7CF1092F100D5CF913039
:1011900059F48111D3CF4130510581F68091480136
:1011A0008D7F80934801CACF933049F48111C6CF17
:1011B0004130510519F6809148018260F2CF953097
:1011C00041F48091E80080FFFCCF20682093E30089
:1011D000B5CF963009F0A9C00B8D1C8D22E010927E
:1011E000E9001092460110924501F2122EC01092B1
:1011F0004401109243010E94D3041F8299E0998315
:10120000FA8291E09E8390EA98879AEF99872091DD
:10121000450130914601275F3F4F3C832B838D83EF
:101220001092E9001092460110924501109344017A
:101230000093430149E050E0BE016F5F7F4F80E0C3
:101240000E94AD040E94D30479CF1093440100930F
:1012500043010E94EA03DC0112960D911C910115D5
:10126000110509F451C1D801ED91FC910480F5817B
:10127000E02DBE016B5E7F4FC8010995009709F014
:101280003EC1F80100851185EACFF3E0FF120EC0E0
:101290008F89882309F440C0823061F440E860E11E
:1012A00089ED96E00E94EA0A811148CF81E280939D
:1012B000EB0047CF813029F440E86BE08DEC96E0FD
:1012C000F1CF833099F70E94EA03DC011296ED908A
:1012D000FC908E010F5F1F4F6801E114F10479F05B
:1012E000D701ED91FC910680F781E02DB801C7018F
:1012F0000995080F111DF701E084F184EECFD801A4
:101300001C92F60101900020E9F73197BF016C199A
:101310007D0940E0C601C6CF67EB76E0FB01449152
:1013200050E080E80E94AD0409CF973009F4BECFA9
:10133000983021F481E08093F10000CF993009F0DA
:10134000FDCE837009F0B2CFEEE0F1E081E031E054
:1013500096E32191222371F08093E9003093EB0012
:10136000DF0111972C912093EC009093ED008F5F9B
:10137000873079F78EE78093EA001092EA008F8930
:1013800080935801DBCE8B8D9C8D1092E9001092DA
:101390004601109245019093440180934301898D49
:1013A000811192C08E899D89913A49F4813209F068
:1013B0007DCF47E050E065E071E080E0B3CF91324F
:1013C00009F074CF833269F48F89988DB0E0A0E082
:1013D0008093010190930201A0930301B093040153
:1013E000ADCE803269F48091E80082FFFCCF67E0E7
:1013F00085E091E00E9404058BEF8093E8009ECE8B
:10140000823209F09BCE8F8980930C01EEEFFFE7CB
:10141000859194918B3F9C4D51F1E0E0F8E08091F3
:10142000050190910601A0910701B0910801803B50
:101430009440A105B105F1F480910C0180FD1AC022
:10144000EE3F8AE0F80789F587E797E79183808385
:10145000809160008093470188E19BE00FB6F8948B
:10146000A895809360000FBE9093600067CEEEEF6A
:10147000FAE0D5CF808191818737974709F05ECE1A
:10148000A8958091600088618093600080914701F9
:1014900080936000EE3F2AE0F20789F08091FE0A17
:1014A0009091FF0A9183808349CE80819181873713
:1014B000980751F29093FF0A8093FE0AC5CF1092CD
:1014C000FF0A1092FE0A3ACE0E94EA03DC0112964D
:1014D0000D911C910115110509F4E8CED801ED918B
:1014E000FC910190F081E02DBE016B5E7F4FC80141
:1014F0000995811123CEF80100851185EBCF1816CF
:1015000019060CF41BCED2CEF1E0FF12BECE6BEB6F
:1015100076E004CF1F920F920FB60F9211242F93F3
:101520003F938F939F93AF93BF938091330190919B
:101530003401A0913501B09136013091320123E0A0
:10154000230F2D3758F50196A11DB11D20933201AF
:101550008093330190933401A0933501B093360109
:101560008091370190913801A0913901B0913A01F1
:101570000196A11DB11D8093370190933801A0936E
:101580003901B0933A01BF91AF919F918F913F91F3
:101590002F910F900FBE0F901F90189526E8230FE4
:1015A0000296A11DB11DD2CF1F920F920FB60F92BE
:1015B00011248F939F9381E08093BF0090E99093D3
:1015C000D100809340019F918F910F900FBE0F909B
:1015D0001F901895EF92FF920F931F93CF93DF9375
:1015E000F82E192FE62E042F81E0860F880F0E9417
:1015F0007F0483E00E947F04CF2DD12FEC0EFD2EBF
:10160000F11CCE15DF05B9F007FF13C0FE01849170
:101610000E947F04182F80E00E947F04812321967E
:101620008111EFCFDF91CF911F910F91FF90EF903C
:1016300008958881EDCF81E0F5CFEBE5F5E01382E9
:10164000128288EE93E0A0E0B0E084839583A683C5
:10165000B78388E191E0918380838FEF9FEF958737
:101660008487EBEAF5E0138212828AE291E09183AB
:1016700080830895CF93DF93CDB7DEB765970FB61C
:10168000F894DEBF0FBECDBF789484B5826084BD70
:1016900084B5816084BD85B5826085BD85B5816076
:1016A00085BD80916E00816080936E0010928100F4
:1016B00080918100826080938100809181008160AF
:1016C0008093810080918000816080938000809170
:1016D000910082608093910080919100816080935D
:1016E0009100809190008160809390008091C10072
:1016F00084608093C1008091C10082608093C100AA
:101700008091C10081608093C1008091C30081609D
:101710008093C3008091C00082608093C00080915C
:10172000C20081608093C20080917A0084608093BF
:101730007A0080917A00826080937A0080917A00AA
:10174000816080937A0080917A00806880937A002B
:10175000109258011092480110924A018091D700CE
:1017600081608093D70080EA8093D80089B580613A
:1017700089BD89B5826089BD09B400FEFDCF61E0F5
:1017800070E080E090E00E94A1058091D8008F7CFD
:1017900080618093D8008091E000807F8093E0009A
:1017A0008091E1008E7E8093E1008DE08093E200E5
:1017B000559A209A81EC80937C0085B1806F85B921
:1017C00084B1877E84B984B1876E84B95E9A5F984C
:1017D0008AB1806D8AB9769A6E9881B3806F81BB29
:1017E000899880B38D7080BB80E58CBD81E08DBD14
:1017F00085E090E00E945B065F9A85E090E00E94A1
:101800005B065E985C980CE516E01B830A8309E68C
:1018100016E0EA81FB8184910E9468062A813B815F
:101820002F5F3F4F3B832A830217130791F75C9A80
:1018300081E88093640080916500816080936500F9
:101840000E9439070E94600687FF12C05C9885EAF3
:101850000E9468065C9A2E982F982D9880916400BB
:1018600080628093640081E083BF889513BEFCCFC3
:101870000E94600682FF48C02D980E94600684780E
:101880008438E1F40E94590688EC90E00E945B06DF
:101890002F9882E090E00E944F0F8F3F29F06FEF6A
:1018A00082E090E00E94570F84EF91E00E945B0677
:1018B0002F9A0E94600684788438D9F30E946006CB
:1018C00084718431E1F40E94590688EC90E00E9412
:1018D0005B062E9882E090E00E944F0F882329F04B
:1018E00060E082E090E00E94570F84EF91E00E9458
:1018F0005B062E9A0E94600684718431D9F388ECCD
:1019000090E00E945B06B4CF0E94590682E090E00E
:101910000E94E707882309F461C03E9A3F9A81E05C
:1019200090E00E94E707382F3470732E81FF13C0B8
:1019300031112E9861EF262E33243A9408E010E0FE
:101940007CE6E72EF12C0E94600686FF4AC02E9AA4
:101950002F9A0E94590682E390E00E945B060E9443
:1019600060068111F8CF0E94390768E089E696E0A9
:101970000E94D1079FB7F89481E08093BF0020E9CF
:101980002093D1001092C00029E02093C1008093E1
:10199000C2001092C3001092BF001092BF001092BC
:1019A000BE00809172008460809372009FBF83E0CC
:1019B0008093000183E0A82E92E0C92ED12CE12C67
:1019C000F894809140018111E0C083B7816083BFAA
:1019D0007894889583B78E7F83BFF2CF3E983F98E7
:1019E0009ECF772031F044E02416310411F42E9A72
:1019F0002F9881E00E94A003910137FE04C02227A6
:101A000033272219330927703327C10137FC079682
:101A100053E0959587955A95E1F737FE05C00197F4
:101A2000B801621B730B9B01BC017695762F66276C
:101A300077956795675A7E4FB0E0A0E02801421A7B
:101A4000530A8E3FEFEF9E0709F446C048E550E089
:101A5000FD01EC5FF94F5F014B01F0E88F0E911C27
:101A60008F3F9807C9F0F501E41BF50B64906701FF
:101A7000C41AD50AC60ED71EE62DF0E0022E02C00B
:101A8000EE0FFF1F0A94E2F7FD83EC83F6016080FE
:101A9000FC816F2AF601608221153105C9F0F5013C
:101AA000E41BF50B64906701C41AD50AC80CD91C55
:101AB000E62DF0E0042C02C0F595E7950A94E2F7D4
:101AC000FD83EC83F6016080FC816F2AF601608261
:101AD0004150510909F0C4CF0196A85ABF4F605830
:101AE0007F4FA03BB10509F0ACCF0E9439078FE0D2
:101AF00090E00E945B06FFEF2F1A3F0A29E12216B1
:101B0000310409F020CF772011F02F9A2D9880E929
:101B100091E00E945B060E94590681E090E00E94DD
:101B2000E70780FF18CF8AE090E00E94E7079FEF69
:101B3000980F9E3F08F00FCF22E330E030933E0134
:101B400020933D0128E330E030933C0120933B019A
:101B50000BE010E01B830A83682F8BEA95E00E945C
:101B60003C078A819B810E94E7070A811B810F5FE6
:101B70001F4F1B830A830131110571F70E9439073A
:101B800088EE93E00E945B06E6CE109240017894C6
:101B900010913F012FE741E050E061E070E089EDF6
:101BA00094E00E94B70762E083E796E00E94D107C5
:101BB0002FEF47E051E061E070E089E591E00E949D
:101BC000B70762E081E796E00E94D1078EEF810FB0
:101BD0001F5F8E3F30F4809141018F5F8093410100
:101BE00010E010933F0180914101882319F081504A
:101BF000809341010091420110E00E9466050E941D
:101C00005405F82E0E944E05982F36018E2C011592
:101C10001105A1F0969596959695A0FC990F9F9D1C
:101C20009001219F700C811C309F700C811C319F92
:101C3000800C209F600C711C1124811C382F2F2DCB
:101C40003F872E874F85A9E5B1E020E430E060E1D1
:101C500070E04E84B22E3324542C4695469546951A
:101C600051E061FD54E060FD550F62FD52958827FB
:101C70008095982FA2FC05C01FEF159FC00180958D
:101C80009095759567957595679575956795062FE8
:101C90000F3F4CF40095401BA0FC000F049D600C0E
:101CA000711C831C0FEF37FF0BC0520EA0FE02C049
:101CB000220F331F621A730A830837FD8394BB24F3
:101CC00010E801030B0CA00DB11D1B19511608F0F3
:101CD000512E17E0101B141714F4412F339410E801
:101CE0001519E42DFF27A1FC02C0E519FF0BA0FE8A
:101CF00002C0EE0FFF1F1124FD8BEC8B1C83398675
:101D000008879B8B8A8B252E488B598A752D942D9D
:101D1000312E8F012A893B899984B8840090590516
:101D2000700C00905A05801C18C05998AEBC600E0B
:101D3000711E811C8827971709F083950CD08EBCE3
:101D400007D07EBC05D06EBC03D01EBC03D0089566
:101D5000C8950000C895C8950895601A710A810851
:101D6000E4DFB1141CF0442371F564C0A058BF4FE8
:101D7000572FA0FC0CC04EB41EBC429C6C91632338
:101D800061296D93C89500C05A95A9F711C04EB44A
:101D90001EBC429C2001DEDF2EB51EBC229D9001A0
:101DA0006C913095632365296D93C8955A9579F7A1
:101DB0001124A71BB1094A9509F45CC0882319F0C6
:101DC0000DB4599AB2DFFD01E058FF4F572FA0FC28
:101DD0000EC04EB41EBC429C6C91622360296D9370
:101DE00060816323612961935A9599F716C04EB4B7
:101DF0001EBC429C20016C913081AEDF00C02EB52C
:101E00001EBC229D0094602164296D9310943121A1
:101E10003529319300005A9551F71124A30DB11DB6
:101E20004A9561F6992031F1882321F00DB4599A31
:101E30007CDFC895A0FC0CC04EB41EBC429C6C91CB
:101E4000622360296D93C89500C07A95A9F712C0E6
:101E50004EB41EBC429C20017DDF4EB51EBC429D8F
:101E6000402D6C914095642364296D93C8957A95B3
:101E700079F7C8951124599A0DB4809142018F5F6A
:101E8000833051F08093420100E010E0012B09F40F
:101E900097CD0E94000094CD10924201F5CFF999A0
:101EA000FECF92BD81BDF89A992780B50895262F5F
:101EB000F999FECF1FBA92BD81BD20BD0FB6F8942F
:101EC000FA9AF99A0FBE01960895EE0FFF1F05903A
:0A1ED000F491E02D0994F894FFCF7F
:101EDA0001FFFFFFFF00E100000000000000C180D9
:101EEA008100000000000000FE03D4051F04140452
:101EFA00650423044104000000003C072105E407AF
:021F0A00E307EB
:00000001FF
